:020000040800F2
:1000000060650020B1020008C35200088B48000858
:10001000C1520008890F000889650008000000002F
:10002000000000000000000000000000F1010008D6
:10003000FD0F0008000000004D020008A95500084F
:10004000CB020008CB020008CB020008CB0200085C
:10005000CB020008CB020008CB020008CB0200084C
:10006000CB020008CB020008CB0200088D0F00086D
:10007000CB020008CB020008CB020008CB0200082C
:10008000CB02000800000000FD0E0008CB020008B3
:10009000CB020008CB020008CB020008CB0200080C
:1000A000395600086156000845560008CB02000882
:1000B000CB020008CB020008CB020008CB020008EC
:1000C000CB020008CB020008CB020008CB020008DC
:1000D000CB020008CB020008CB0200087D650008B7
:1000E000CB020008CB020008CB020008CB020008BC
:1000F000CB020008CB020008CB0200080000000081
:1001000000000000CB02000800000000CB02000845
:10011000CB020008000000006D560008CB0200086A
:10012000CB020008CB020008CB020008CB0200087B
:10013000CB0200080000000000000000CB02000815
:10014000CB020008CB020008000000000000000005
:10015000000000000000000000000000000000009F
:10016000000000000000000000000000CB020008BA
:10017000CB020008000000000000000000000000AA
:1001800000000000CB02000800000000000000009A
:10019000000000000000000000000000000000005F
:1001A0000000000000000000CB020008CB020008A5
:1001B000CB020008CB020008CB02000800000000C0
:1001C00000000000CB02000800000000000000005A
:1001D000CB020008CB020008DFF810D000F05AFC78
:1001E000004800478D840008AFF300806065002060
:1001F0002C4B19680868B0E8F04F80F30988BFF30A
:100200006F8F4FF0000080F31188704700000000EE
:1002100008480068006880F308884FF0000080F309
:10022000148862B661B6BFF34F8FBFF36F8F00DFE4
:1002300000BF00BF08ED00E0DFF80C00016841F4EA
:1002400070010160704700BF88ED00E0EFF30980A6
:10025000BFF36F8F134B1A681EF0100F08BF20ED0D
:10026000108A20E9F04F106009B44FF0500080F37D
:100270001188BFF34F8FBFF36F8F09F0DFFB4FF093
:10028000000080F3118809BC19680868B0E8F04FD5
:100290001EF0100F08BFB0EC108A80F30988BFF37E
:1002A0006F8F7047FC000020EFF30580704700005F
:1002B0000648804706480047FEE7FEE7FEE7FEE700
:1002C000FEE7FEE7FEE7FEE7FEE7FEE72956000849
:1002D000D90100082DE9F05F0546002092469B46B3
:1002E00088460646814640241BE02846414647464C
:1002F000224600F05EF953465A46C01A914110D387
:1003000011461846224600F045F92D1A67EB010800
:100310004F4622460120002100F03CF917EB00096E
:100320004E41201EA4F10104DFDC484631462A4636
:100330004346BDE8F09F40EA01039B0703D009E074
:1003400008C9121F08C0042AFAD203E011F8013BC1
:1003500000F8013B521EF9D27047D2B201E000F81A
:10036000012B491EFBD270470022F6E710B5134659
:100370000A4604461946FFF7F0FF204610BD2DE956
:10038000FE4F804681EA0300C00F0C46009021F02A
:10039000004123F00045B8EB0200A94105D24046D8
:1003A000214690461C460B46024623F0004010436F
:1003B00047D0270DC7F30A00C3F30A510290401A31
:1003C000019040286BDAC3F3130040F4801B0098BF
:1003D000924620B10023D2EB030A63EB0B0B01988A
:1003E0005946C0F14002504600F0D4F806460D468A
:1003F00050465946019A00F0ECF810EB08006141B4
:10040000002487EA115284EAE7731A4340D0009A25
:1004100062B3019A012A4FEA075215DC001B61EB17
:1004200002014FF0004202EA0752CDE90042001CEF
:1004300041F5801132462B4600F072F903B0BDE859
:10044000F08F40462146F9E7001B61EB0201001CDA
:1004500041F5801300185B412018A2F5001747EB07
:10046000030140EAD570B6196D4111E06D084FEAFD
:10047000360645EAC0754FEA0752001B61EB0201E0
:10048000001C41F5801149084FEA30000019514124
:1004900032462B4603B0BDE8F04F00F032B9009869
:1004A000012240000023D0EB020263EBE0730098CE
:1004B00021464FEAE074B8EB000061EB0401E9E784
:1004C00083F000435BE781F0004158E770B5C1F36A
:1004D0000A5201F000450024C1F3130140F2FF333A
:1004E00041F480119A4201DA002070BD40F233439A
:1004F0009A42A2F2334203DC524200F05AF800E082
:1005000090402C43F1D0404270BD00F0004230F0EA
:1005100000400AD0C10D01F56071C0F3160042EA37
:100520000151C2084007114370470020014670473F
:1005300001F0004330B421F0004150EA010206D03E
:100540000A0DA2F56072C1F31301002A02DC30BC6F
:1005500000207047440F44EAC104C100E01830BCD9
:1005600000EBC25000F096B830B50B4601460020B3
:100570002022012409E021FA02F59D4205D303FA65
:1005800002F5491B04FA02F52844151EA2F10102E6
:10059000F1DC30BD202A04DB203A00FA02F1002011
:1005A00070479140C2F1200320FA03F319439040B1
:1005B0007047202A04DB203A21FA02F0002170471C
:1005C00021FA02F3D040C2F12002914008431946BB
:1005D0007047202A06DBCB17203A41FA02F043EAA3
:1005E000E07306E041FA02F3D040C2F120029140EC
:1005F00008431946704700000FB4002300B589B0C6
:100600000CA900910B996FF00042CB601E4B069332
:100610001E4B07930423CDE901321D4A089202467E
:100620006B46002000F0E2FA09B05DF814FB70B5EB
:1006300086B006464FF0FF300091CDE90101002061
:1006400015460C4604903246694604A8FFF7D4FFCD
:1006500002460498211825B108B1084600E020465A
:100660002860049800280DD0002A02DD00988842F6
:1006700008D0081B0094CDE901043246694604A85D
:10068000FFF7BAFF06B070BD250E0008430E000844
:10069000B90A00080029A8BF7047401C490008BFDC
:1006A00020F00100704710B4B0FA80FC00FA0CF0A2
:1006B00050EA010404BF10BC704749B1CCF12004DA
:1006C00021FA04F411FA0CF118BF01212143084367
:1006D000A3EB0C01CB1D4FEA00614FEA102042BF93
:1006E000002010BC704700EBC35010440029A4BF89
:1006F00010BC7047401C490008BF20F0010010BC2E
:10070000704710B5141E73F1000408DA401C41F163
:10071000000192185B411A4301D120F0010010BD85
:100720002DE9F04D92469B4611B1B1FA81F202E0FB
:10073000B0FA80F220329046FFF72CFF04460F46B5
:1007400040EA0A0041EA0B0153465A46084313D0D7
:10075000114653EA010019D0C8F140025046FFF794
:1007600028FF05460E46504659464246FFF712FFFF
:10077000084305D0012004E020463946BDE8F08D4D
:100780000020054346EAE0762C4337430A98630588
:10079000E40AA0EB08000022FD0A44EA47540A30AC
:1007A00002D500200146E9E7010510196941DDE99C
:1007B000084500196941BDE8F04DA2E72DE9FE4F5B
:1007C00081EA030404F0004421F0004100944FF05A
:1007D000000B23F0004350EA01045ED052EA030408
:1007E0005BD0C3F30A54C1F30A552C44A4F2F3348A
:1007F0000194A0FB0254C1F3130141F48011C3F32F
:10080000130343F4801301FB024400FB034E840AEC
:10081000970A44EA815447EA8357A4FB0768029584
:100820008D0A05FB07854FEA932C04FB0C54270522
:10083000029D4FEA065847EA1637B5EB08056EEBFE
:10084000070C870E920E47EA811742EA8312A7FB34
:100850000201B6EB0B0164EB00042B0D43EA0C33F1
:100860005E1844EB1C50DA465146E7FB0201C5F323
:1008700013044FEA0B3343EA14534FEA0432019C4A
:1008800043EA0603A4F10C040294009CCDE900B4F1
:10089000FFF746FF03B0BDE8F08F00200146F9E7FF
:1008A0002DE9F04D81EA030404F0004B21F00045EE
:1008B00014464FF0000A23F0004150EA050220D010
:1008C00054EA01021DD0C5F30A570246C5F31303CB
:1008D000C1F31300C1F30A5640F4801543F48013AA
:1008E000A7EB0608101BD64608F2FD3873EB05008F
:1008F00002D308F1010801E092185B41B8F1000F42
:1009000003DA00200146BDE8F08D00204FF480118D
:10091000064684460EE0171B73EB050705D3121B32
:1009200063EB050306434CEA010C49084FEA30002B
:1009300092185B4150EA0107EDD152EA030012D050
:1009400082EA040083EA0501084305D0101BAB418D
:1009500006D20122002306E000224FF0004302E00D
:100960006FF0010253101AEB06004CEB085110EB2C
:100970000A0041EB0B01BDE8F04DFFF7C2BE2DE9C7
:10098000FE4FC3F30A5701F000450024C1F30A5695
:10099000C3F31303C1F3130143F4801312EB020AF0
:1009A000A64641F48011009543EB030CA7F1010B1F
:1009B00016E0B0EB0A0061EB0C01071E71F10007B5
:1009C00007DA4FF00008D0EB080085F0004568EB2F
:1009D0000101171A73EB0107EBD3761E001849418A
:1009E0005E45F6DA50EA010209D0CDE900E50022C1
:1009F00013460296FFF794FE03B0BDE8F08F204641
:100A00000099F9E7C1F30A52C1F3130140F2FF3331
:100A100041F480119A4202DA00200146704740F208
:100A200033439A42A2F2334202DC5242FFF7C1BD85
:100A3000FFF7B0BD30B5041E71F1000404DB4FF0C8
:100A40000044404264EB0101141E73F1000405DB15
:100A50001C464FF00043524263EB04038B4208BF35
:100A6000824230BD30B5041E71F1000404DB4FF04A
:100A70000044404264EB0101141E73F1000405DBE5
:100A80001C464FF00043524263EB0403994208BFF7
:100A9000904230BD064C074D06E0E06840F001038F
:100AA00094E8070098471034AC42F6D3FFF798FB60
:100AB000C8AA0008E8AA0008C0B24FF4F05100F03C
:100AC000D1B900002DE9FF4F087883B09946FF287F
:100AD00005D0491C2D2804D00024002008E0002067
:100AE0000BE00124F9E700EB800003EB4000491C18
:100AF0000B78FF2BF7D104B1404200230293147806
:100B000019461D462D2C01D02B2C04D1521C2D2C06
:100B100013D000240294AA461478FF2C0FD00A2583
:100B2000A3FB057801FB05814FF0000C03FB0C11C2
:100B3000521CE3194AEB0101EEE70124EAE7814484
:100B400053EA010002D019F5C87F06DA03980021A4
:100B5000C0E9001107B0BDE8F08F0025AE4E2F466A
:100B6000DFF8B882184600F091F9CDE90001B9F13B
:100B7000000002DAC9F1000400E004460023A74A9D
:100B80001AEB030B42EB045A12E0E00707D02A46A7
:100B9000334638464146FFF711FE074688462A4647
:100BA000334610461946FFF709FE05460E46641007
:100BB000002CEAD1DDE90001B9F1000F5A46534695
:100BC00006DAFFF76DFE3A464346FFF769FE05E099
:100BD000FFF7F4FD3A464346FFF7F0FD029A0AB1EB
:100BE00081F00041039AC2E90001B3E72DE9FF4F0C
:100BF0001F468DB0D7E901464FF0FF382E204546FD
:100C00004FF000090B90B9696D1C0E988847396A3E
:100C1000824688470028F6D1BAF1FF3F0AD024F473
:100C2000D064002E11DDBAF12B0F08D0BAF12D0FD0
:100C30000BD102E0404611B08DE744F48064B969FD
:100C40006D1C0E9888478246761E6946600501D560
:100C50002D2000E02B208DF8000001F1010B0DF19B
:100C6000200809E0B9696D1C0E98884782460F98E4
:100C700044F40074761E0560002E02DDBAF1300FD8
:100C8000F0D00B998A453ED144F0800406E00F99DC
:100C9000681CA9F1010944F400740860B9696D1C6D
:100CA000761E0E98884782463028F0D02BE00B99AC
:100CB0008A4505D1200603D444F08004761E18E04E
:100CC000504606F0D7F908B30DF11301761E44F42F
:100CD00000748B4508D2AAF130000BF8010B2006F6
:100CE00007D5A9F1010003E0200602D409F10100B3
:100CF0008146A00502D50F99681C0860B9696D1C72
:100D00000E9888478246002ED1DC53E0002E51DD3C
:100D1000BAF1650F02D0BAF1450F4BD1A00549D504
:100D2000B9696D1C24F44074761E0E98884782467B
:100D3000002E0CDD2B2804D0BAF12D0F07D144F47E
:100D40008074B9696D1C0E9888478246761EE0054E
:100D500001D52D2100E02B2108F8011BCDF82C80B6
:100D600021E00DF12901761E44F4007488450CD26F
:100D7000AAF1300010F0FF0088F8000002D10B99B2
:100D8000884509D908F1010806E0E00501D52448A5
:100D900001E042F20F708146B9696D1C0E988847D8
:100DA00082460F980560002E04DD504606F062F979
:100DB0000028D6D1F9690E988847FF208BF80000EB
:100DC00088F800000020069007904B466A4608A964
:100DD00006A8FFF777FEA00502D46FF001002AE70E
:100DE00014F0240F0AD0E00714D1DDE906123868A8
:100DF000031D3B600068C0E900120BE0DDE906015D
:100E0000FFF796FB0146E00704D13868021D3A60FF
:100E10000068016028460EE7000014400000F03F23
:100E2000F1D8FFFF426842B1016811F8013B23B1DC
:100E3000521EC0E90012184670470121C160881E89
:100E4000704742685AB1C368016843B983688B42EE
:100E500005D0491E521CC0E90012002070474FF017
:100E6000FF3070477F2801D9002208E0064A02EBD4
:100E70005002C007127800D1120902F00F020120BF
:100E8000904008407047000050AA00080EB540F29C
:100E9000334202920022CDE900221346FFF740FCC4
:100EA00003B000BD70B58C1810F8015B15F0070396
:100EB00001D110F8013B2A1106D110F8012B03E0F3
:100EC00010F8016B01F8016B5B1EF9D12B0705D4FB
:100ED0000023521E0DD401F8013BFAE710F8013B44
:100EE000CB1A921C03E013F8015B01F8015B521E60
:100EF000F9D5A142D8D3002070BD000010B5044838
:100F000000F036FEBDE81040024800F031BE00009F
:100F100084010020F001002070B50446006881685B
:100F20008268C1F3400112F0010F28D039BB8168FB
:100F300001F00D01012914D18168124A1140891C68
:100F4000816021680320086001F040FB054612E043
:100F500001F03CFB401B02280DD920688068C007C7
:100F600009D0E06D40F01000E065206E40F0010017
:100F70002066012070BD20688068C007E8D100208D
:100F800070BD0000C0FFFF7FFEE70000014801F0D8
:100F900020B90000840400200D4902688A4201D271
:100FA0000C4901E00B492031D2B21423083AB2FBBC
:100FB000F3F2436C02F01F0223F00303194481642F
:100FC00004498031C16401219140016570470000EE
:100FD00008040240000802400179074A02EB81023E
:100FE0004265054A4432491E826501F01F02012113
:100FF0009140C16570470000FC080240704772B61E
:10100000FEE70000F8B500260446009690F8580068
:101010000D4601280BD0012084F858002046FFF728
:101020007BFF0100E06D04D040F010002AE00220B8
:10103000F8BD20F4885040F00200E0652068826826
:10104000134B1A4005F080431A4342F0004282607D
:10105000104A20680EE0009B5B1C0093934209D36A
:10106000E06D20F0020040F01000E06584F8586068
:101070000120F8BD8368DB0FEDD1E06D20F00200A8
:1010800040F00100E06584F858600846F8BD0000B3
:10109000C0FFFF3F02DE0400704700002DE9F84F5B
:1010A0004FF000080446CDF800800D4694F8582013
:1010B000DFF80094616947464046012A0AD00126BC
:1010C000FD4A84F8586041B1296A012905D0A36E10
:1010D000EBB129E00220BDE8F88F6868092838D113
:1010E000A96A4FF4785041B12B6801F07C0100EA05
:1010F00053400843E96A084302E0296800EA514086
:101100002168CB6C13400343CB64606621E0C4E9E3
:101110001971A96A286A31B101F07C01401E0843A7
:10112000E96A084300E0401E29682B79C1F3846115
:1011300003F01F0399400143A06E401EA066636E3A
:1011400043EA0103636604D12068C16C114019436E
:10115000C164206803F048FD58B995F8250098B19E
:101160002068C16895F8262021F4401141EA4251D7
:10117000C160206803F040FD8246206803F034FD22
:101180005AEA00000DD0FBE095F8260095F82410EF
:10119000400540EA01512068C26822F44012114320
:1011A000E6E7A86A30B1E86A20B195F82500012881
:1011B0005ED003E095F82500012804D02068C168BE
:1011C00021F0007103E02068C16841F00071C16046
:1011D00095F83000012852D02068016921F0020101
:1011E0000161AA6829682068B2F1004F38D003F085
:1011F0001EFD2068416921F0004141612068696954
:10120000C268C2F3C102520091402A69042A44D044
:1012100000EB82002B68026EDFF8A0C203F0F843F7
:1012200002EA0C020B431A4342F0004101662068B7
:101230002A69A96900EB8200026E22F080720A43DB
:101240000266297F22682869012923D05FF0000106
:1012500002EB8000026E22F000720A4302668FE009
:10126000002203F0E4FC2068416941F00041C4E73A
:10127000E06D40F02000E0654FF00108A8E7D5E9F7
:101280000D1001432068026922F4FF7242F002024D
:101290001143A5E74FF00071DAE7002103F09AFC53
:1012A000400320684FF0000172D003F093FC90FAE5
:1012B000A0F0B0FA80F1286842036ED090FAA0F056
:1012C000B0FA80F0814204D100221146206803F078
:1012D000C5FC0121206803F07DFC400320684FF02D
:1012E00001015DD003F076FC90FAA0F0B0FA80F135
:1012F0002868420359D090FAA0F0B0FA80F08142F9
:1013000004D100220121206803F0A8FC02212068FA
:1013100003F060FC400320684FF0020148D003F066
:1013200059FC90FAA0F0B0FA80F12868420344D04A
:1013300090FAA0F0B0FA80F0814204D1002202219C
:10134000206803F08BFC0321206803F043FC40037A
:1013500020684FF0030133D003F03CFC90FAA0F07A
:10136000B0FA80F1286842032FD090FAA0F0B0FACA
:1013700080F0814204D100220321206803F06EFC3A
:101380002068816811F0010F22D0AFE000E004E096
:1013900003F020FCC0F384618DE7C0F3846091E723
:1013A00003F018FCC0F38461A2E7C0F38460A6E7F1
:1013B00003F010FCC0F38461B7E7C0F38460BBE7BF
:1013C00003F008FCC0F38461CCE7C0F38460D0E78D
:1013D000EB6829684B4550F8B03FC1F3120101D1C9
:1013E0000B4300E08B430360E86848457ED12868E2
:1013F00041031CD090FAA0F1B1FA81F1491C01F02F
:101400001F0109294FEA403132D8002912D000BF0C
:1014100090FAA0F1B1FA81F101F1010101F01F018F
:1014200006FA01F609D100BFC0F3846109E0C0F3F8
:101430008461E3E7C0F38461EEE790FAA0F1B1FACA
:1014400081F101F1010101F01F0146EA816102D140
:10145000C0F3846003E090FAA0F0B0FA80F000F1ED
:10146000010000F01F0000EB400041EA005139E0AC
:1014700000290ED090FAA0F1B1FA81F101F1010139
:1014800001F01F0106FA01F606D100BFC0F3846126
:1014900006E0C0F38461F1E790FAA0F1B1FA81F1BE
:1014A00001F1010101F01F0146EA816109D1C0F398
:1014B00084600AE000007F400040100400F0FF0359
:1014C00014E090FAA0F0B0FA80F000F1010000F012
:1014D0001F002B4A00EB400002EB005041EA0001E4
:1014E00041F00071AA68206803F0A1FB25482A6832
:1014F000024240D024488168244B01F0E0719A42B6
:1015000002D0234B9A421BD10B0219D42268B2F1AC
:10151000A04F30D1826841F4000122F0E0720A430A
:1015200082601C481C490068B0FBF1F0801C00EB95
:101530004000800000E0401E00900028FBD11AE02F
:10154000164D174BAA4207D1CD0105D422689A4205
:1015500011D041F0807109E0124DAA420BD14A022C
:1015600009D422689A4206D041F48001826822F0B0
:10157000E0720A43826084F858704046ABE5000090
:10158000000020FE0000088000030050000021C37E
:101590001000C09030000020400D0300000052C732
:1015A00000010050000084CB30B52E49884231D173
:1015B0002E492D480A682B49037809685BB351F816
:1015C000803F9BB20381496889B28181D2F8802033
:1015D00092B2428144881B1B00EE103AF8EEC00A1A
:1015E0009FED230A60EE800AC0ED040A8388D21AB8
:1015F00000EE902AF8EEE00A60EE800AC0ED050ADF
:10160000C288891A00EE901AF8EEE00A20EE800AED
:1016100080ED060A30BD43785B1CDCB2447051F8A3
:10162000803F0381D2F880204281496881814588CA
:101630000A2C2B449BB2438085882A4492B2828034
:10164000C58829448DB2C580E4D3012101700A21E7
:10165000B3FBF1F3B2FBF1F2B5FBF1F14380828011
:10166000C18030BD8401002000000020F001002076
:101670006EFAB33C70477047704700002DE9F047A1
:10168000044690F858009CB00E464FF0000901281F
:1016900015D0012084F8580000251795189520686A
:1016A0004FF0A04840450ED1284F0097384603F030
:1016B000A3FA8246206803F09FFA60B10EE0022090
:1016C0001CB0BDE8F087E06D40F02000E06584F8D4
:1016D00058500120F4E7BAF1000F09D0E06D40F056
:1016E0002000E0654FF0010984F858504846E7E7CC
:1016F0001748326840F61F71002A826822F460425F
:1017000016D094F8383042EA433273681A43826044
:10171000D8F80820BB6802F0010203F001031A4365
:10172000E2D1B36832681A4383688B431A430BE0F3
:101730008260D8F80820BB6802F0010203F00103C0
:101740001A43D1D182688A438260CDE700010050FC
:10175000000300502DE9F84F00270446009790F849
:101760005800DFF8D8930D46B846012811D001265D
:1017700084F85860206803F03BFA60B1E06D40F0F7
:101780002000E0655FF0010784F858803846BDE826
:10179000F88F0220FBE7D5E900210C23206803EA3B
:1017A00091131844036B01F01F014FF01F0C0CFA4A
:1017B00001FCC2F3846223EA0C038A4013430363EF
:1017C000206803F015FA8246206803F009FA5AEA05
:1017D00000003CD1AA6829682068B2F1004F37D0D8
:1017E00003F016FA2068416921F000414161206848
:1017F0006969C268C2F3C102520091402A69042A91
:1018000031D000EB82002B68026EDFF834C303F0A6
:10181000F84302EA0C020B431A4342F0004101660E
:1018200020682A69A96900EB8200026E22F08072AA
:101830000A430266297F22682869012910D0002105
:1018400002EB8000026E22F000720A4302667DE025
:10185000002203F0DDF92068416941F00041C5E74D
:101860004FF00071ECE7002103F0AEF9400320686F
:101870004FF0000172D003F0A7F990FAA0F0B0FA8F
:1018800080F1286842036ED090FAA0F0B0FA80F0A0
:10189000814204D100221146206803F0D7F90121CA
:1018A000206803F091F9400320684FF001015DD0FA
:1018B00003F08AF990FAA0F0B0FA80F128684203A8
:1018C00059D090FAA0F0B0FA80F0814204D1002201
:1018D0000121206803F0BAF90221206803F074F9AD
:1018E000400320684FF0020148D003F06DF990FAF0
:1018F000A0F0B0FA80F12868420344D090FAA0F03A
:10190000B0FA80F0814204D100220221206803F065
:101910009DF90321206803F057F9400320684FF038
:10192000030133D003F050F990FAA0F0B0FA80F13F
:10193000286842032FD090FAA0F0B0FA80F08142DC
:1019400004D100220321206803F080F92068816817
:1019500011F0010F22D0A8E000E004E003F034F918
:10196000C0F384618DE7C0F3846091E703F02CF944
:10197000C0F38461A2E7C0F38460A6E703F024F912
:10198000C0F38461B7E7C0F38460BBE703F01CF9E0
:10199000C0F38461CCE7C0F38460D0E7EB682968CA
:1019A0004B4550F8B03FC1F3120101D10B4300E0A9
:1019B0008B430360E868484577D1286841031CD011
:1019C00090FAA0F1B1FA81F1491C01F01F01092937
:1019D0004FEA403132D8002912D000BF90FAA0F16E
:1019E000B1FA81F101F1010101F01F0106FA01F6DE
:1019F00009D100BFC0F3846109E0C0F38461E3E76B
:101A0000C0F38461EEE790FAA0F1B1FA81F101F13F
:101A1000010101F01F0146EA816102D1C0F3846037
:101A200003E090FAA0F0B0FA80F000F1010000F0BD
:101A30001F0000EB400041EA005132E000290ED0C7
:101A400090FAA0F1B1FA81F101F1010101F01F0159
:101A500006FA01F606D100BFC0F3846106E0C0F3C8
:101A60008461F1E790FAA0F1B1FA81F101F101018D
:101A700001F01F0146EA816102D1C0F3846003E0F6
:101A800090FAA0F0B0FA80F000F1010000F01F0021
:101A90002C4A00EB400002EB005041EA000141F00B
:101AA0000071AA68206803F0B3F827482A68024248
:101AB0003FF46AAE25488168254B01F0E0719A42F7
:101AC00002D0244B9A421CD10B021AD42268B2F1E4
:101AD000A04F7FF459AE826841F4000122F0E07219
:101AE0000A4382601C481D490068B0FBF1F0401CAD
:101AF00000EB4000800000E0401E00900028FBD179
:101B000042E6174D174BAA4207D1CD0105D42268F2
:101B10009A42F5D041F0807109E0134DAA42EFD10D
:101B20004A02EDD422689A42EAD041F480018268E8
:101B300022F0E0720A43826026E6000000007F4047
:101B400000F0FF03000020FE0000088000030050AA
:101B5000000021C31000C09030000020400D0300A1
:101B6000000052C700010050000084CB704770474E
:101B70002DE9F05F0446006806684568DFF854B256
:101B8000DBF8080000F01F07B0070ED5A8070CD53A
:101B9000E06DC00603D4E06D40F40060E0652046CF
:101BA000FFF77AFA216802200860DFF82CA270079C
:101BB0004FF0A04801D5680703D4300737D5280770
:101BC00035D5E06DC00603D4E06D40F40070E065EB
:101BD000206803F015F820B32068504501D1424633
:101BE00000E00246824208D03FB1052F05D0092F00
:101BF00003D0504503D1414602E0C16801E00146EF
:101C0000C96889040DD4016809070AD502F0F0FFFC
:101C100058B3E06D40F01000E065206E40F0010028
:101C200020662046FFF7A2FF21680C200860B0065E
:101C300001D5A80603D4700658D5680656D5E06DC0
:101C4000C00603D4E06D40F40050E0652068C16C2C
:101C500011F4C07F1AD00021894602F0D1FF02465C
:101C60002068504514D1434613E02068416821F0B4
:101C70000C014160E06D20F48070E065E06DC0040F
:101C8000CFD4E06D40F00100E065CAE70121E3E751
:101C90000346834208D03FB1062F05D0072F03D05B
:101CA000504503D1414602E0C16801E00146C968E0
:101CB000B9F1000F14D08B0102D58AB18A040FD478
:101CC000026852060CD589020AD402F089FFE8B3F3
:101CD000E06D40F01000E065206E40F001002066ED
:101CE0002046FFF761FC21686020086030060BD5B4
:101CF000280609D5E06D40F48030E065204600F00C
:101D00006BF9216880200860F0050CD5E8050AD53C
:101D1000E06D40F40030E0652046FFF7ACFC216840
:101D20004FF480700860B0050CD5A8050AD5E06DA9
:101D300040F48020E0652046FFF79EFC21684FF4C8
:101D400000700860F0062ED5E80600E008E02AD50D
:101D5000E06BD0B1AFB1DBF8080000F4604013E0F5
:101D60002068416821F060014160E06D20F48050FE
:101D7000E065E06DC005B3D4E06D40F00100E065C2
:101D8000AEE72068C068C00750B1E06D40F48060E5
:101D9000E065206E40F0020020662046FFF7E7FE77
:101DA000216810200860700512D5680510D5E06D17
:101DB00040F48040E065206E40F008002066216815
:101DC0004FF4806008602046BDE8F05FFFF752BC2A
:101DD000BDE8F09F0003005000010050F8B54FF03F
:101DE000000504002E46009502D0E06D10B107E01A
:101DF0000120F8BD204600F0F1F8266684F858600E
:101E000020688168C1F3407119B181686A4A114044
:101E1000816020688168C1F3007189B98168674A6F
:101E2000114041F080518160654866490068B0FB0F
:101E3000F1F04000801C00E0401E00900028FBD123
:101E400020688168C1F3007141B9E16D41F0100172
:101E5000E165216E41F001012166012502F0C8FE15
:101E6000E16DC90600D430B1E06D40F01000E065CE
:101E700001252846F8BDE06D20F4807040F0020096
:101E8000E0652068806810F0010F11D14FF0A0408C
:101E900080684D4900F00100896801F001010843A4
:101EA00006D14A486168826822F47C120A43826043
:101EB000E168E06B627F0843A16841EA4231084370
:101EC00094F8241040EA0140012904D1218D404AB0
:101ED00002EB41410843E16A29B101F47871226BB8
:101EE000014342EA01002168CA683A4B1A400243A2
:101EF000CA6020680169626B21F040611143016191
:101F0000206802F075FE0646206802F069FE304344
:101F10002ED1207F94F83810800340EA41022068D7
:101F2000C16844F2020399431143C160206900284B
:101F3000206801690AD041F480310161206850F8BD
:101F4000C01F22696FF30D01114307E021F48031B6
:101F50000161206850F8C01F6FF30D01016094F813
:101F6000400001280CD02068016921F001010161C5
:101F7000606901282068016B21F00F0111D013E086
:101F8000D4E911010843D4E913121143084321682D
:101F90000A6940F2FC739A43104340F00100086163
:101FA000E6E7226A521E11430163E06D20F0020051
:101FB00040F00100E0655CE7C0FFFF5FC0FFFF7F0E
:101FC00030000020400D03000001005000030050CD
:101FD0000000FEFF0740F0FF704700002DE9F041D0
:101FE00098B00446142111A8FEF7BEF944216846B2
:101FF000FEF7BAF94FF40041206800258A03384FF4
:102000000326384C4FF09048B0F1A04F10D0364B1B
:10201000984262D10F926846009100F0FDFE08B12F
:10202000FEF7EDFF3868401C3860012835D03CE0F1
:102030000F926846009100F0EFFE08B1FEF7DFFF57
:102040003868401C3860012807D1E06C40F400502B
:10205000E064E06C00F400501690E06C40F0010089
:10206000E064E06C00F001001690E06C40F00200CB
:10207000E064E06C139500F0020016900420CDE9B6
:10208000110611A9404600F073F941F202001395C0
:10209000CDE9110611A9154815E0E06C40F4005097
:1020A000E064E06C00F400501690E06C40F0010039
:1020B000E064E06C139500F0010016904120CDE93A
:1020C000110611A9404600F053F900220521122003
:1020D00000F030FD122000F01FFD18B0BDE8F081C7
:1020E00020000020001002400001005000040048C1
:1020F00010B590F8253000210122022B03D00421D5
:10210000C163012122E003681C6824F00E041C60F6
:10211000836C1C6824F480741C6003681C6824F0C1
:1021200001041C6090F84430046C03F01F0302FAB1
:1021300003F36360D0E913345C60436D33B11C6812
:1021400024F480741C60D0E916345C6080F825208B
:10215000002280F82420084610BD70B590F8252094
:10216000002401212346022A07D00422C26380F8FA
:10217000251080F82430012429E00268156825F034
:102180000E0515600268156825F001051560826C62
:10219000156825F48075156090F84420056C02F0F0
:1021A0001F0201FA02F26A60D0E913255560426D00
:1021B00032B1156825F480751560D0E91625556093
:1021C00080F8251080F82430816B01B188472046C3
:1021D00070BDF0B4016C0C6801680D6890F8442083
:1021E00002F01F06042202FA06F3234211D06B0705
:1021F0000FD50B689B0603D40B6823F004030B6018
:1022000090F8441001F01F018A40016C4A60016B94
:102210001DE0022303FA06F727424FF0000C4FF0AF
:10222000010218D0AF0716D50C68A40605D40C68B7
:1022300024F00A040C6080F8252090F8441001F086
:102240001F018B40016C4B6080F824C0C16A0029DB
:102250001AD0F0BC08470823B340234214D02B0700
:1022600012D50B6823F00E030B6090F84410036C3A
:1022700001F01F0102FA01F15960C26380F82520C4
:1022800080F824C0416BE2E7F0BC704770B50400F1
:102290000CD02B4A21681420914209D2294A0A44C1
:1022A000B2FBF0F08000606427480AE0012070BDB6
:1022B000234A52420A44B2FBF0F080006064204896
:1022C00008382064022084F825000A6847F6F07078
:1022D0008243D4E902031843D4E904352B4318435D
:1022E000A3691843E3691843236A1843104308603D
:1022F0002046FEF751FEA0680025B0F5804F00D1C2
:102300006560A16C20790860D4E9130141606068C0
:10231000401E032808D82046FEF75EFE606D05606B
:10232000D4E91601416002E06565A565E565E563F0
:10233000012084F8250084F82450002070BD00009E
:1023400008040240F8FFFDBF0000024070B50446DB
:1023500000F03CF90546601C02D004484068044483
:1023600000F034F9401BA042FAD370BD24000020D5
:102370002DE9F04FDFF82092002301260324A9F174
:10238000040B85B00F2709F1040AABF1040EFAE043
:1023900006FA03F52A407CD091F804C00CF0030C37
:1023A000BCF1010F02D0BCF1020F26D1D0F808C059
:1023B000CDF800C04FEA430C04FA0CF8CDF810C079
:1023C000DDF800C02CEA080CCDF800C0D1F80C8074
:1023D000DDF810C008FA0CF8DDF800C048EA0C0877
:1023E000C0F80880D0F804C02CEA050C0D79C5F3BC
:1023F00000159D4045EA0C0545600D79ED43AD079C
:102400000ED0C5684FEA430804FA08FC25EA0C051B
:10241000D1F808C00CFA08FC4CEA050CC0F80CC056
:102420000D7905F00305022D16D1DD0800EB850CB2
:10243000CDF808C0DCF820805D074FEAD56C07FABC
:102440000CF528EA05080D6905FA0CF5DDF808C059
:1024500045EA0805CCF8205005684FEA430CCDF852
:1024600008C004FA0CFC25EA0C0591F804C00CF035
:102470000308DDF808C008FA0CF848EA0508C0F8B7
:1024800000804D6815F4403F7CD0444DD5F860C0C5
:1024900000E077E04CF0010CC5F860C02D6E23F031
:1024A000030C05F0010500953D4D65440295AD68AE
:1024B0004FEA837C4FEA1C7807FA08FC25EA0C05F2
:1024C000B0F1904F06D0DFF8DCC0604505D14FF089
:1024D000010C20E04FF0000C1DE0DFF8CCC060459F
:1024E00002D14FF0020C16E0DFF8C0C0604502D107
:1024F0004FF0030C0FE0DFF8B8C0604502D14FF099
:10250000040C08E0DFF8ACC0604502D14FF0050CC8
:1025100001E04FF0060C0CFA08FC4CEA050C029D99
:10252000C5F808C0D9F80050CC46D1F804809543CE
:102530005FEAC82800D51543CCF80050DAF80050FF
:10254000D446D1F8048095435FEA882800D5154326
:10255000CCF80050DBF80050DC46D1F804809543FD
:102560005FEA883800D51543CCF80050DEF80050FB
:10257000F446D1F8048095435FEAC83800D5154386
:10258000CCF800505B1C0A6832FA03F57FF400AF08
:1025900005B0BDE8F08F00000804014000100240C3
:1025A000000001400004004800080048000C0048FA
:1025B00000100048001400480069084000D00120C5
:1025C00070470AB181617047816270470148806835
:1025D000704700002400002090F84120202A24D1D8
:1025E00090F84020012A20D0012280F840202422A7
:1025F00080F841200268136823F001031360026829
:10260000136823F480531360026813680B4313604C
:1026100001680A6842F001020A60202180F8411036
:10262000002180F84010084670470220704790F85B
:102630004120202A22D190F84020012A1ED00122D8
:1026400080F84020242280F841200268136823F09B
:10265000010313600268136823F4706343EA0121E5
:10266000116001680A6842F001020A60202180F8C6
:102670004110002180F84010084670470220704742
:1026800070B5040004D094F84100002510B106E0B4
:10269000012070BD84F84050204600F071F92420DC
:1026A00084F841002068016821F001010160606840
:1026B000216820F0706008612068816821F4004181
:1026C0008160E0680128A06807D040F404402168D8
:1026D0008860E068022803D006E040F40040F6E796
:1026E00021684FF40060486020684168114A114336
:1026F00041602068C16821F40041C160D4E904014F
:102700000843A16940EA01202168C860D4E90701B3
:102710000843216808602068016841F001010160F8
:102720006564202084F84100256384F8425000202D
:1027300070BD0000008000022DE9F84F044690F8BB
:102740004100DDF828A01F4690468B4620287ED108
:1027500094F8400001287AD0012084F84000FFF767
:1027600035FF0646012200901923D103204602F0CE
:1027700047F9E0BB222084F84100102084F8420091
:1027800000256564C4F8248067856563618D3148E0
:10279000FF274FF080784FF00079FF2903D9278574
:1027A0003A46009039E0618D218500903AE0594623
:1027B000204602F00DF913E002F04EF9B8B9206896
:1027C000406A616A0870606A401C6062208D401E29
:1027D00080B22085618D491E6185618D01B168B12E
:1027E000608D3246002851462046E5D100E002E0E7
:1027F00002F080F9D0B10120BDE8F88F53460022E5
:1028000080212046009602F0FBF80028F3D1608D6D
:10281000FF2804D927853A4600954346C7E7608DCF
:102820002085009594F828204B46C0E72168202099
:10283000C86121684A68084B1A404A6084F8410020
:1028400084F8425084F840500020D5E7FFE702208A
:10285000D2E700000024008000E800FE2DE9F84FD8
:10286000044690F84100DDF828A01F4690468B46AC
:1028700020287ED194F8400001287AD0012084F8E5
:102880004000FFF7A3FE0646012200901923D10362
:10289000204602F0B5F8E0BB212084F8410010206A
:1028A00084F8420000256564C4F824806785656368
:1028B000618D3148FF274FF080784FF00079FF2974
:1028C00003D927853A46009039E0618D2185009033
:1028D0003AE05946204602F07BF813E002F030F966
:1028E000B8B9606A216800788862606A401C6062DA
:1028F000608D401E6085208D401E80B22085618DD8
:1029000001B168B1608D3246002851462046E5D1BC
:1029100000E002E002F0EEF8D0B10120BDE8F88F4F
:102920005346002280212046009602F069F80028D4
:10293000F3D1608DFF2804D927853A460095434698
:10294000C7E7608D2085009594F828204B46C0E7A6
:1029500021682020C86121684A68084B1A404A60F3
:1029600084F8410084F8425084F840500020D5E7B4
:10297000FFE70220D2E700000020008000E800FE10
:10298000F0B597B00446142111A8FDF7EDFC4421E1
:102990006846FDF7E9FC20492068884239D140208B
:1029A000002500900695684600F036FA08B1FEF75B
:1029B00026FB1A4CE06C40F00100E064E06C00F093
:1029C00001001690E06C40F00200E064E06C12261A
:1029D00000F00200169004274FF40040CDE9126584
:1029E000CDE91457119011A9B006FFF7C1FC60158D
:1029F000CDE91265CDE91457119011A90848FFF7E8
:102A0000B7FCA06D40F40010A065A06D00F40010AC
:102A1000169017B0F0BD00000054004000100240B6
:102A20000004004802488168426811448160704790
:102A30002400002010B50024032000F09BF80F2094
:102A400000F008F808B1012401E000F047F8204642
:102A500010BD000030B505461B4887B0016E41F43B
:102A600080210166006E06A900F48020009001A874
:102A700000F004FC00F034FC1449154AB0FBF1F1FD
:102A80001448491E0260416040F2E7320021C0E96B
:102A90000321816000F0B7FF040012D10D4801F05E
:102AA0005BF804000DD11A2000F036F8102D07D283
:102AB000002229461A2000F03DF80748056000E092
:102AC000012407B0204630BD0010024040420F00F4
:102AD00000480140E4040020240000200D4808B50F
:102AE000016E41F001010166016E01F001010091EA
:102AF000816D41F080518165806D002200F0805031
:102B000000900F21901E00F015F8BDE8084000F07D
:102B10007BB9000000100240002809DB00F01F0212
:102B2000012191404009800000F1E020C0F800112F
:102B300070470000F0B40E4B1B680C46C3F3022331
:102B4000C3F10705042D00D90425191D072901D259
:102B5000002300E0DB1E012606FA05F1491E214094
:102B600099409E40761E16403143F0BC03F04ABDAA
:102B70000CED00E0064900F0070208684FF6FF037D
:102B8000184040EA0220034A1043086070470000E2
:102B90000CED00E00000FA05F8B504004FF0000568
:102BA00014D094F83A00052810D094F83A0002287E
:102BB0000CD03448016E41F001010166006E00F056
:102BC0000100009094F83A0010B104E00120F8BD33
:102BD000002084F83900204600F058F8A0682A4AFE
:102BE0004FF48071402836D0602834D020680368C4
:102BF000E66A23F0100333430360D4E9010318436A
:102C0000D4E9033633431843237D012B00D0002140
:102C10000843616A0843A16A0843218E40EAC14023
:102C200094F8341040EA01612068036813401943A6
:102C3000016020688169002909DBD4E9061211438B
:102C4000226A836923F03F031A431143816194F898
:102C50003A0090B114E020680368E66A23F010039C
:102C600033430360D4E901031843267D2369012E11
:102C700000D000210B431843CBE7012084F83A0031
:102C80002846F8BD00100240113E00E030B587B084
:102C9000044614216846FDF767FB24681D4D002299
:102CA0001D4903234FF09040AC4209D1CC6C44F055
:102CB0000104CC64C96C01F0010105910E210CE006
:102CC000144D2D1DAC4211D1CC6C44F00104CC64E8
:102CD000C96C01F001010591E021CDE900130292D8
:102CE0004FEA0D01FFF744FB07B030BD094808303B
:102CF0008442F9D1C86C40F00200C864C86C6946CF
:102D000000F0020005900720CDE90003029203487D
:102D1000E8E7000000030140001002400004004802
:102D2000002138B190F83A20052A03D090F83A20D3
:102D3000012A02D00121084670470268136843F057
:102D400001031360042280F83A20F4E72B492C4B4E
:102D50000A6832214A432B4940B1B0F5007F086828
:102D600029D020F4C06040F480602CE00868C0F3F3
:102D70004120022804D051F8800F20F4807022E016
:102D8000D1F8800020F48070C1F88000086820F439
:102D9000C06040F400700860B2FBF3F0401C00E03B
:102DA000401E4A69520501D50028F9D148694005FD
:102DB0000AD503207047C0F34120022806D051F8FD
:102DC000800F40F48070086000207047D1F88000C8
:102DD00040F48070C1F88000086820F4C06040F4BE
:102DE00000700860B2FBF3F0401C00E0401E4A692E
:102DF0005205DBD50028F9D1D8E7000030000020CB
:102E000040420F00007000400248816841F4804158
:102E100081607047007000402DE9F8430446006867
:102E200000269D4D00035ED5A86D0027C00008D484
:102E3000A86D40F08050A865A86D012700F0805073
:102E40000090DFF85892D9F8001041F48071C9F869
:102E50000010FFF7BBFB804606E000BFFFF7B6FBA4
:102E6000A0EB080002282BD8D9F80000C005F5D542
:102E7000D5F8900010F4407014D0216C814211D02C
:102E8000D5F89000D5F8901020F4407041F48031CE
:102E9000C5F89010D5F8901021F48031C5F8901045
:102EA000C5F89000C00711D0FFF790FB804641F2B3
:102EB000883907E0FFF78AFBA0EB0801494501D9F3
:102EC00003260BE0D5F890008007F3D5D5F89000E5
:102ED000216C20F440700843C5F890001FB1A86D24
:102EE00020F08050A8652078C00707D0D5F888006A
:102EF000616820F003000843C5F888002078800747
:102F000007D5D5F88800A16820F00C000843C5F863
:102F100088002078400707D5D5F88800E16820F0C0
:102F200030000843C5F888002078000707D5D5F899
:102F30008800216920F0C0000843C5F88800207887
:102F4000800607D5D5F88800616920F44060084301
:102F5000C5F888002078400607D5D5F88800A16913
:102F600020F440500843C5F888002078000607D5B3
:102F7000D5F88800E16920F440400843C5F888008E
:102F80002088C00507D5D5F88800216A20F4403094
:102F90000843C5F888002088800507D5D5F8880043
:102FA000616A20F440200843C5F888002088400565
:102FB0000FD5D5F88800A16A20F440100843C5F861
:102FC0008800A06AB0F5801F03D1E86840F4801043
:102FD000E860208800050FD5D5F88800E16A20F464
:102FE00040000843C5F88800E06AB0F5800F03D1BF
:102FF000E86840F48010E8602088C0040FD5D5F858
:103000008800216B20F040700843C5F88800206BD1
:10301000B0F1807F03D1E86840F48010E860208838
:103020004FF0006180040ED5D5F88800626B20F067
:1030300040601043C5F88800606B884203D1E8689F
:1030400040F48010E860208840040ED5D5F8880050
:10305000A26B20F040601043C5F88800A06B884246
:1030600003D1E86840F48010E860208800040FD5A0
:10307000D5F88800E16B20F040500843C5F888007F
:10308000E06BB0F1805F03D1E86840F48030E86025
:103090003046BDE8F8830000001002400070004098
:1030A0002DE9F0470E4605004FF0000725D0DFF868
:1030B000AC81D8F8000000F00F00B0420CD2D8F874
:1030C000001021F00F013143C8F80010D8F80000BB
:1030D00000F00F00B04210D12968614CC80741F2DE
:1030E000883A5AD06868DFF87C91032808D0022813
:1030F00020682DD0400500282CDB0120BDE8F0879A
:1031000020688001F9D5E06800F00302E068C0F3B0
:103110000310401C032A19D0534A00BFB2FBF0F041
:10312000E268C2F306225043E268C2F34162521CD5
:103130005200B0FBF2F0484517D9A06810F0F00F2C
:103140000CD0880711D5A86840B10EE0474AE5E7E2
:103150008003D0E700F0D6F8484506D9A06820F0F3
:10316000F00040F08000A0608027A068696820F02F
:1031700003000843A060FFF729FA814606E000BF7C
:10318000FFF724FAA0EB090151453AD8A068696815
:1031900000F00C00B0EB810FF2D12868810714D544
:1031A000400703D5A06840F4E060A06028780007DD
:1031B00005D5A06820F4605040F4E060A060A068ED
:1031C000A96820F0F000084304E0802F03D1A06834
:1031D00020F0F000A060D8F80010404601F00F0188
:1031E000B14216D9016821F00F0131430160FFF7A8
:1031F000EDF9074607E000BFFFF7E8F9C11B5145AD
:1032000001D903207AE7D8F8000000F00F00B0429F
:10321000F2D12878400705D5A068E96820F4E0607D
:103220000843A0602878000706D5A068296920F423
:10323000605040EAC100A06000F064F8A1680C4A48
:10324000C1F30311515C01F01F01C8400949086036
:1032500009480068BDE8F047FFF7FCBB00200240CA
:103260000010024000B4C4040024F40000366E01D3
:10327000E4A5000830000020240000200F22026096
:103280000C4A936803F003034360936803F0F00370
:103290008360936803F4E063C36092684FF4E06373
:1032A00003EAD20202610448006800F00F000860DF
:1032B0007047000000100240002002400548064907
:1032C00000688968054AC1F30221515C01F01F01C1
:1032D000C84070473000002000100240F4A50008EC
:1032E0000548064900688968054AC1F3C221515C56
:1032F00001F01F01C840704730000020001002405C
:10330000F4A50008184910B58868C0F38102174871
:10331000012A0BD08A68164BC2F38102022A06D01A
:103320008A68C2F38102032A03D0002010BD184628
:1033300010BDCA6802F00304CA68C2F30312521C2B
:10334000032C02D0B0FBF2F001E0B3FBF2F0CA684C
:10335000C968C2F306225043C1F34161491C4900C8
:10336000B0FBF1F010BD0000001002400024F4009A
:1033700000366E012DE9F84304007AD02078FA4D2A
:10338000C00747D0A868E96800F00C0001F003010D
:103390000C2802D0082817D001E0032914D0606857
:1033A000B0F5803F17D0B0F5A02F286817D020F4D3
:1033B00080302860286820F4802028606068E0B1B0
:1033C000FFF704F9064614E02868800322D56068F8
:1033D0000028D2D01EE0286840F48030EDE740F4A9
:1033E00080202860F7E700BFFFF7F0F8801B642813
:1033F00070D828688003F7D50CE0FFF7E7F8064699
:1034000005E000BFFFF7E2F8801B6428F0D82868C9
:103410008003F7D4207880074CD5A868E96800F0CD
:103420000C0001F003010C2802D004280DD001E0AB
:1034300002290AD0E068002828682BD040F4807068
:103440002860FFF7C3F8064619E02868400502D552
:10345000E068002891D06868217C20F0FE4040EAB6
:1034600001606860C1480068FFF7F4FA002800D1E5
:1034700020E076E1FFF7AAF8801B0228B8D8286878
:103480004005F7D56868217C20F0FE4040EA0160E5
:1034900068600FE020F480702860FFF797F8064618
:1034A00005E000BFFFF792F8801B0228A0D828682B
:1034B0004005F7D42078000729D560690028D5F8A1
:1034C000940013D040F00100C5F89400FFF77EF897
:1034D000064606E090E000BFFFF778F8801B022860
:1034E00086D8D5F894008007F6D510E020F00100CA
:1034F000C5F89400FFF76AF8064604E0FFF766F89F
:10350000801B022878D8D5F894008007F6D420785C
:10351000400761D5A86D0026C00008D4A86D40F012
:103520008050A865A86D012600F08050009090485A
:103530000168C90511D40168804641F480710160B9
:10354000FFF744F8074604E0FFF740F8C01B0228E5
:1035500052D8D8F80000C005F6D5A068012815D0CB
:103560000528D5F8900016D020F00100C5F890008D
:10357000D5F8900020F00400C5F89000A06841F252
:103580008838B8B1FFF722F807460EE0D5F890006A
:1035900040F00100F0E740F00400C5F89000F5E7C6
:1035A000FFF714F8C11B414526D8D5F890008007D5
:1035B000F6D50CE0FFF70AF8074604E0FFF706F837
:1035C000C11B414518D8D5F890008007F6D41EB12C
:1035D000A86D20F08050A8652078800629D5A069C4
:1035E0000028D5F8980013D040F00100C5F89800E5
:1035F000FEF7ECFF064606E077E000BFFEF7E6FFC9
:10360000801B022877D8D5F898008007F6D510E0FF
:1036100020F00100C5F89800FEF7D8FF064604E048
:10362000FEF7D4FF801B022865D8D5F898008007E4
:10363000F6D4E069F0B3A968C1F38101032961D030
:103640000228286820F0807028600BD0E86820F0FD
:103650000300E860E86847490840E860FEF7B6FF05
:1036600004464BE0FEF7B2FF064604E0FEF7AEFF6D
:10367000801B02283FD828688001F7D4F4E90801AC
:103680006FF00F0202EB01110843218A520449082E
:1036900002EB4151A26841EA02210843217D4FF02B
:1036A0007E42490802EB41610843217B40EAC16048
:1036B000E96800E062E0304A11400843E8602868A9
:1036C00040F080702860E86840F08070E860FEF7A5
:1036D0007DFF044605E000BFFEF778FF001B0228CF
:1036E00009D828688001F7D548E004E0FEF76EFFAE
:1036F000001B022802D90320BDE8F8832868800156
:10370000F4D43BE00128F7D0E868226A00F0030116
:10371000914226D1616A00F0F0020901103991420C
:103720001FD1A26A00F4FE41B1EB022F19D194F827
:103730002C2000F07841B1EBC26F12D1218E00F441
:10374000C00249084905A1F50011914209D194F838
:10375000341000F0C06049084906A1F100718142AF
:103760000CD00120C8E70000001002402400002017
:1037700000700040FFFFEEFE0C809F010020BBE7C1
:103780007047704770470000F0B590F83C20012A60
:103790004AD0012280F83C20CA688B6822F440722B
:1037A0001A434B6822F480621A430B6822F40062C9
:1037B0001A430B6922F480521A434B6922F40052D7
:1037C0001A430B6B22F480421A430B8B22F47022B3
:1037D00042EA0342154C03680026154DA34201D06E
:1037E000AB4203D1CF6922F080523A43A34201D0C9
:1037F000AB4214D10F8D22F4700242EA07520F6AD5
:1038000022F080723A434F6A22F000723A43A34298
:1038100001D0AB4203D1C96A22F000520A435A6474
:1038200080F83C600020F0BD0220F0BD002C01407B
:103830000034014070470068416D41F4003141653A
:103840000020704770477047F0B590F83C20012A7F
:103850003AD0012580F83C50022280F83D200368D0
:103860005A689C68194E1A4FB34201D0BB4204D12A
:1038700022F4700C4A6842EA0C02DFF858C002EAEF
:103880000C02D1F800C04CEA020CC3F804C0026874
:10389000B2420DD0B2F1804F0AD00F4B9A4207D0FE
:1038A0000E4B9A4204D0BA4202D00D4B9A4204D138
:1038B000896824F080031943916080F83D5000210D
:1038C00080F83C100846F0BD0220F0BD002C0140FD
:1038D000003401408FFFFFFD00040040000800405D
:1038E0000040014010B50446022249B104290ED01F
:1038F000082913D094F84700012816D0012010BDE4
:1039000094F844000128F9D184F844200FE094F899
:1039100045000128F2D184F8452008E094F84600DB
:103920000128EBD184F8462001E084F847200422E6
:10393000206801F006FF2068416C41F400414164B9
:103940001049206888420ED0B0F1804F0BD00E494C
:10395000884208D00D49884205D00D49884202D0DE
:103960000C49884207D181680B4A1140062906D0CC
:10397000B1F5803F03D0016841F0010101600020F2
:1039800010BD0000002C0140000400400008004071
:1039900000340140004001400700010070B50446BA
:1039A0000D460068002201F0CCFE2068036A41F257
:1039B00011110B4244F2444206D1036A134203D16F
:1039C000436C23F4004343642068036A0B4206D12E
:1039D000016A114203D1016821F001010160012057
:1039E0003DB1042D08D0082D09D084F847000020EF
:1039F00070BD84F84400FAE784F84500F7E784F8DE
:103A00004600F4E7704710B5040003D094F83D0079
:103A100010B107E0012010BD002084F83C002046D2
:103A200000F022F8022084F83D00211D206801F0FA
:103A300023FE012084F8480084F83E0084F83F000B
:103A400084F8400084F8410084F8420084F8430080
:103A500084F8440084F8450084F8460084F8470060
:103A600084F83D00002010BD08B51D4A01681D48BE
:103A700091421ED1016E41F400610166006E002288
:103A800000F40060009001211820FFF753F818207F
:103A9000FFF742F8002201211920FFF74BF8192007
:103AA000FFF73AF800220F211A20FFF743F81A20F7
:103AB00010E00D4A914211D1816D41F010018165F4
:103AC000806D002200F01000009005213620FFF7E5
:103AD00031F83620BDE80840FFF71EB808BD0000E9
:103AE000002C0140001002400010004090F83D10F2
:103AF000012901D001207047022180F83D100068A3
:103B00000F4988420ED0B0F1804F0BD00D4988424A
:103B100008D00D49884205D00C49884202D00C4992
:103B2000884207D181680B4A1140062906D0B1F5B9
:103B3000803F03D0016841F001010160002070471F
:103B4000002C014000040040000800400034014007
:103B5000004001400700010090F83D10012901D00C
:103B600001207047022180F83D100168CA6842F0C8
:103B70000102CA600068104988420ED0B0F1804F3F
:103B80000BD00E49884208D00D49884205D00D4916
:103B9000884202D00C49884207D181680B4A114003
:103BA000062906D0B1F5803F03D0016841F001013C
:103BB0000160002070470000002C0140000400401C
:103BC00000080040003401400040014007000100AF
:103BD00001680A6A41F211131A4207D10A6A9B006E
:103BE0001A4203D10A6822F001020A60012180F81A
:103BF0003D1000207047000070B5044690F83C006E
:103C00000025012814D0012684F83C60022084F8A5
:103C10003D0022689068364B184020F47F40906049
:103C2000086870282ED010DC10F00F0F03D021E0B0
:103C30004FF0020070BD4FEA2012072A1AD2DFE8C7
:103C400002F0525252524A3840002A4BC21A98424D
:103C500049D009DCB0F5805F0DD0B0F5005F1CD015
:103C6000B0F1101F06D13EE0102A3CD0202A3AD0F5
:103C7000502A38D0012584F83D60002084F83C00AB
:103C8000284670BDCB68D1E90121206801F066FDAE
:103C90002068816841F0770109E0CB68D1E9012112
:103CA000206801F05BFD2068816841F480418160FB
:103CB000E1E7CA684968206801F0FAFE50212068EF
:103CC00006E0CA684968206801F003FF60212068A7
:103CD00001F04EFDCFE7CA684968206801F0E8FEB0
:103CE00040212068F4E7226801461046F0E7000012
:103CF00088FFCEFF20001000704770B504460068B2
:103D000001694FF00005C943890715D4C168C9434B
:103D1000890711D4E91E016101202077206880699C
:103D20008007204602D0FFF7E7FF04E000F02EF9FD
:103D3000204600F0F0F9257720680169C94349075A
:103D400017D4C168C943490713D46FF00401016156
:103D5000022020772068806910F4407F204602D03E
:103D6000FFF7CAFF04E000F011F9204600F0D3F994
:103D7000257720680169C943090716D4C168C9437A
:103D8000090712D46FF00801016104202077206830
:103D9000C0698007204602D0FFF7AEFF04E000F0C4
:103DA000F5F8204600F0B7F9257720680169C94386
:103DB000C90617D4C168C943C90613D46FF01001EE
:103DC0000161082020772068C06910F4407F2046F8
:103DD00002D0FFF791FF04E000F0D8F8204600F091
:103DE0009AF9257720680169C943C90708D1C168D4
:103DF000C943C90704D1891E0161204600F060FA59
:103E000020680169C943090609D4C168C943090684
:103E100005D46FF0800101612046FFF7B2FC2068F5
:103E20000169C943C90509D4C168C943090605D454
:103E30006FF4807101612046FFF7A2FC20680169E0
:103E4000C943490609D4C168C943490605D46FF07E
:103E500040010161204600F05BFA20680169C94316
:103E6000890609D4C168C943890605D46FF02001C9
:103E700001612046FFF786FC20680169C943C90239
:103E800009D4C168C943C90205D46FF48011016126
:103E90002046FFF7D7FC20680169C943890209D48D
:103EA000C168C943890205D46FF40011016120463D
:103EB000FFF7C0FC20680169C943490209D4C16801
:103EC000C943490205D46FF4800101612046FFF720
:103ED000BAFC20680169C94309020BD4C168C9430F
:103EE000090207D46FF4000101612046BDE870406B
:103EF000FFF788BD70BD0000F0B587B004461421FF
:103F00006846FCF731FA1E492068884236D11D48C0
:103F1000C16C41F00201C164C16C01F00201059164
:103F2000C16C41F00101C164C06C022500F00100C8
:103F300005904FF4C04000900024CDE901540626BE
:103F4000114FCDE9034669463846FEF711FAA8033A
:103F50000090CDE901540420CDE90340694638467C
:103F6000FEF706FA4FF4E0600090CDE90154CDE988
:103F7000034669464FF09040FEF7FAF907B0F0BDEE
:103F8000002C01400010024000040048704770B54A
:103F9000044690F83C0000260D4601280BD0012075
:103FA00084F83C000C2A4AD007DC82B1042A20D0D5
:103FB000082A06D131E0022070BD102A53D0142AFD
:103FC00063D00126002084F83C00304670BD206894
:103FD00001F0D8FB2068816941F008018161206807
:103FE000816921F004018161206881692A69114396
:103FF00011E0206801F014FC2068816941F400613F
:1040000081612068816921F4806181612068816912
:104010002A6941EA02218161D4E7206801F048FC65
:104020002068C16941F00801C1612068C16921F0BF
:104030000401C1612068C1692A69114311E0206847
:1040400001F07EFC2068C16941F40061C161206813
:10405000C16921F48061C1612068C1692A6941EAAE
:104060000221C161AEE7206801F0B2FC2068016D59
:1040700041F0080101652068016D21F0040101652E
:104080002068016D2A69114311E0206801F0D8FC15
:104090002068016D41F4006101652068016D21F423
:1040A000806101652068016D2A6941EA022101658C
:1040B00088E710B5040003D094F83D0010B107E084
:1040C000012010BD002084F83C00204600F022F8BA
:1040D000022084F83D00211D206801F0CDFA012066
:1040E00084F8480084F83E0084F83F0084F84000DB
:1040F00084F8410084F8420084F8430084F84400C6
:1041000084F8450084F8460084F8470084F83D00B0
:10411000002010BD7047704730B50446022269B1D7
:10412000042912D0082917D00C291CD0102921D01D
:1041300094F84300012824D0012030BD94F83E00BB
:104140000128F9D184F83E201DE094F83F000128B1
:10415000F2D184F83F2016E094F840000128EBD11A
:1041600084F840200FE094F841000128E4D184F85D
:10417000412008E094F842000128DDD184F8422073
:1041800001E084F843200122206801F0CDFA194BA8
:1041900020681949194A984209D0884207D09042AC
:1041A00005D0174DA84202D0164DA84203D1456C48
:1041B00045F400454564206898420CD0B0F1804F2A
:1041C00009D0114B984206D0104B984203D0884238
:1041D00001D0904207D181680D4A1140062906D0CE
:1041E000B1F5803F03D0016841F00101016000207A
:1041F00030BD0000002C014000340140004001406F
:104200000044014000480140000400400008004014
:104210000700010030B504460D460068002201F099
:1042200083FA224B41F2111120688A0098420BD088
:104230001F4B984208D01F4B984205D01E4B984206
:1042400002D01E4B984209D1036A0B4206D1036A81
:10425000134203D1436C23F4004343642068036A90
:104260000B4206D1016A114203D1016821F001011C
:10427000016001205DB1042D0CD0082D0DD00C2D56
:104280000ED0102D0FD084F84300002030BD84F8EC
:104290003E00FAE784F83F00F7E784F84000F4E7CF
:1042A00084F84100F1E784F84200EEE7002C014079
:1042B00000340140004001400044014000480140FA
:1042C00008B500680E49884203D1BDE80840FEF7F2
:1042D000A9BB0C49884211D1002000900A486946C8
:1042E000006805F0D3FA0098002807D007494FF07E
:1042F00080500860BFF34F8FBFF36F8F08BD000081
:104300000048014000100040A800002004ED00E03B
:10431000704790F88010012918D0012180F8801092
:104320002421C0F8841050F8641B0A680B6823F03D
:1043300001030B6022F000510022026050F8643C3F
:1043400019602021016202771046704702207047F1
:104350007047704770B5044690F8800001281DD062
:10436000012084F880002420C4F8840020680568B7
:10437000026822F0010202602068826822F0606216
:104380000A438260204601F0CDFB206805602020B2
:10439000C4F88400002084F8800070BD022070BD45
:1043A00070B5044690F8800001281DD0012084F8E3
:1043B00080002420C4F8840020680568026822F088
:1043C000010202602068826822F060420A43826033
:1043D000204601F0A7FB206805602020C4F8840077
:1043E000002084F8800070BD022070BD70477047C7
:1043F000704700002DE9F04103680446D869196848
:104400009A6840F60F0528424FF0000509D186064C
:104410007ED501F0200602F080573E4378D0216F10
:1044200027E1A94EA94F16400F40374370D0C70768
:1044300009D0CF0507D501271F62D4F88C3043F08F
:104440000103C4F88C3083070AD5D30708D0276846
:1044500002233B62D4F88C3043F00403C4F88C3060
:1044600043070AD5D30708D0276804233B62D4F852
:104470008C3043F00203C4F88C3003070CD501F0F4
:104480002003334308D0266808233362D4F88C30E5
:1044900043F00803C4F88C3003050BD54B0109D554
:1044A00026684FF400633362D4F88C3043F0200365
:1044B000C4F88C30D4F88C30002B3AD0800609D563
:1044C00001F0200002F08051084303D0216F09B1B0
:1044D00020468847D4F88C0021688968490602D4B0
:1044E00010F0280F27D0204601F0DCFB2068806800
:1044F00040061BD52068083050E8001F21F040011D
:1045000040E80012002AF5D1E06F78B1704900E070
:1045100017E08163E06FFDF720FE002809D0E06F0F
:10452000816B00E02046BDE8F04108472046FFF7D8
:104530005FFFBDE8F0812046FFF75AFFC4F88C50BA
:10454000F7E7E76E2026012F7ED1C7067CD5CF0680
:104550007AD51020186220688068400642D5E16F45
:10456000086840680004000CE3D0B4F85C20824284
:10457000DFD9A4F85E000868006880062BD42068A4
:1045800050E8001F21F4807140E80012002AF6D1A3
:104590002068083050E8001F21F0010140E80012B7
:1045A000002AF5D12068083050E8001F21F04001B2
:1045B00040E80012002AF5D1C4F88860E566216859
:1045C00051E8000F20F0100041E80002002AF6D167
:1045D000E06FFDF78DFDB4F85C00B4F85E10401A92
:1045E00081B22CE0B4F85C00B4F85E10401A81B2DD
:1045F000B4F85E0000289CD000299AD0226852E8C6
:10460000000F20F4907042E80003002BF6D12E4BEF
:10461000DB432068083050E8002F1A4040E80027AC
:10462000002FF6D1C4F88860E5662567226852E855
:10463000000F20F0100042E80003002BF6D12046C6
:10464000FFF786FE75E7FFE7C70209D5570207D5D2
:104650004FF4801018622046BDE8F041FFF7C7BE56
:1046600003060AD501F0800302F40002134304D0CC
:10467000616F00297FF456AF5BE7420611D54A0609
:104680000FD52046016851E8002F22F0400241E892
:104690000023002BF6D1C0F88460456700F0F4F8E1
:1046A00047E7020206D54A0004D52046BDE8F0419E
:1046B000FFF79CBEC001C5D50029C3DA2046BDE87E
:1046C000F041FFF746BE0000010000102001000489
:1046D000915C000810B5040003D0D4F8840010B138
:1046E00007E0012010BD002084F88000204600F083
:1046F00027F82420C4F884002068016821F0010113
:104700000160204601F010FD0128EBD0A06A10B135
:10471000204601F029FA2068416821F49041416067
:104720002068816821F02A0181602068016841F0D9
:10473000010101602046BDE8104001F079BA000097
:1047400070B598B00646142111A8FBF70DFE442160
:104750006846FBF709FE26493068884245D10420A7
:104760000025009003956846FEF756FB08B1FCF75C
:1047700046FC2049886D40F480208865886D00F4EF
:1047800080201690C86C40F00200C864C86C11A963
:1047900000F0020016904FF4406011900220CDE925
:1047A00012050720CDE914501348FDF7E1FD144C24
:1047B000124820601D2060601020C4E9020580209E
:1047C000C4E90405A561E56120462562FDF75EFDAB
:1047D00008B1FCF714FCB467002202212720A6626E
:1047E000FEF7A8F92720FEF797F918B070BD000072
:1047F0000048004000100240000400480800024049
:104800008404002030B4D0F88830202B20D1E1B1CE
:10481000DAB190F88030012B1AD0012380F8803073
:104820000023C3660B4C0368A3420BD05B681B02DA
:1048300008D5046854E8003F43F0806344E800353D
:10484000002DF6D130BC01F0A9BD012030BC70476D
:104850000220FBE70080004010B50068074988424D
:104860000AD10748007804F0C7FDBDE810400122D6
:1048700003490448FFF7C6BF10BD000000480040D0
:10488000B8000020F40300207047FEE701688A6941
:10489000D243920701D400228A6200688169C94329
:1048A000C90703D0816941F00101816170470000AF
:1048B0002DE9F047044600688A46174681690025BD
:1048C0002E46C906A9464FF0200849D51021C161DE
:1048D00037E000BFBAF1FF3F33D0FDF777FEC11BD1
:1048E000514502D8BAF1000F2BD12068416894F8E5
:1048F000422001F480418369DB431B041CD4B1F5E1
:10490000804F19D0202A17D0416841F4804141607E
:10491000FDF75CFE07460FE0FDF758FEC01B1928A7
:104920000AD9606C40F02000606484F8418084F80B
:10493000429084F84090012520688069C043800639
:10494000EAD420688069C043800602D5002DC1D01A
:1049500003E015B92168C1F81C8046F00406012562
:1049600021688869C20505D54FF4807246F00106BA
:10497000CA610125410509D522684FF4806146F0DE
:104980000806D1610125800502D40AE0800507D51B
:1049900021684FF4007046F00206C861012500E06E
:1049A0008DB12046FFF772FF54F8240B4168074A87
:1049B00011404160206A3043206284F81D8084F8F1
:1049C0001E9084F81C902846BDE8F08700E800FEA1
:1049D00010B5C1F3090141EA02410268029C194382
:1049E0002143506821F000414FF4806303EA54539F
:1049F000024C234398430843506010BDFF63FF03FC
:104A00002DE9F0411D4617460E460446DDF8188094
:104A100008E0681C06D0FDF7D9FDA0EB0800A8420D
:104A20000BD855B12068806936EA000012D000200A
:104A3000B842EED00020BDE8F08154F8440F40F0B9
:104A4000200044F80409202060700020A07020702D
:104A50000120F0E70120EBE72DE9F0412026904608
:104A60000F460446002530E0424639462046FFF70F
:104A70001FFF10BB20688069C04380061ED42068D9
:104A80008169C943490701D4218D19BB8169C94393
:104A9000C90604D41021C1610420606400E065648B
:104AA0002068C66120684168114A1140416084F85D
:104AB000416084F8425084F8405016E0FDF786FDCE
:104AC000A0EB0800B84208D83FB120688069C04315
:104AD0004007C9D40020BDE8F08154F8440F40F0ED
:104AE000200044F80409667025700120F3E70000F7
:104AF00000E800FE70B516460D4604460DE032464D
:104B000029462046FFF7D4FE08B1012070BDFDF70D
:104B10005DFD801BA84207D835B120688069C0437D
:104B20008006ECD4002070BD54F8440F40F0200003
:104B300044F80409202060700020A0702070E4E791
:104B400070B516460D4604460FE03246294620460B
:104B5000FFF7AEFE08B1012070BD681C05D0FDF75F
:104B600035FD801BA84207D835B120688069C04355
:104B70008007EAD4002070BD54F8440F40F02000B4
:104B800044F80409202060700020A0702070E2E743
:104B900070B50B4C0B4D207808B1002200E00122CB
:104BA00040212846FDF70DFD607808B1002200E0A5
:104BB00001222846BDE870401021FDF702BD00002B
:104BC000F40000200008004800EB8100006E00F0B7
:104BD000F840704700EB8100006E00F0F84070472D
:104BE0008068C0F3C00070478068C0F3C0007047A1
:104BF0008068C0F3800070478068C0F38000704711
:104C0000C06810F4406F01D0002070470120704749
:104C1000042303EAD15310B518444369C1F3045186
:104C200007248C40A3438A401343436110BD0423EF
:104C300003EAD15310B518444369C1F30451072462
:104C40008C40A3438A401343436110BD00EB8100B5
:104C5000016E21F0004111430166704700EB8100B5
:104C6000016E21F00041114301667047F0B59BB021
:104C700000241794189420210FA81994FBF774FBB3
:104C80003C216846FBF770FB31484FF0A0410125FD
:104C900001604FF40021C0E9011400F11001042665
:104CA000C46081E8700004774477056280F824408E
:104CB000C462046380F83840C46380F84040FDF764
:104CC0008DF808B1FCF79BF917A921481794FCF758
:104CD000D5FC08B1FCF793F91E480F9010A90620E7
:104CE0007F2781E89100CDE913640FA91848FCF7EC
:104CF00031FD08B1FCF783F91748009001A909209C
:104D000081E8A100CDE904640220089084200A9083
:104D10008DF8244080208DF825400B908DF826409A
:104D20008DF8304069460A48FCF7B8F908B1FCF73D
:104D300066F90A48009040F20F1001906946044855
:104D4000FCF7ACF9002801D0FCF759F91BB0F0BD15
:104D5000840100200008302E0800900C0010603202
:104D6000F0B597B020210FA8FBF7FEFA3C2168466A
:104D7000FBF7FAFA2748264900240160C902C0E976
:104D80000114C46004250461C0E905450477447733
:104D90000126066280F82440C462046380F838402B
:104DA000C46380F84040FDF719F808B1FCF727F913
:104DB00019480F9010A906207F2781E89100CDE9BE
:104DC00013540FA91348FCF7C5FC08B1FCF717F9F9
:104DD0001248009001A9092081E8C100CDE90454DE
:104DE00084200A908DF8244080208DF825400B9077
:104DF00008968DF826408DF8304069460548FCF746
:104E00004DF9002801D0FCF7FAF817B0F0BD00000A
:104E100000010050F0010020020030040800900C56
:104E20000D4808B5816C41F004018164816C01F08A
:104E300004010091816C41F001018164806C0022C9
:104E400000F00100009005210B20FDF773FEBDE886
:104E500008400B20FDF760BE0010024010B5044A68
:104E60000021044803F070FC0349086010BD0000F5
:104E700098A50008915500081C00002070B586B068
:104E800014216846FBF770FA2848C16C41F0040110
:104E9000C164C16C01F004010591C16C41F02001B5
:104EA000C164C16C01F020010591C16C41F00101A8
:104EB000C164C16C01F001010591C16C41F00201B6
:104EC000C164C06C1A4D00F002000590012250210F
:104ED0002846FDF776FB00244FF43050CDE900045E
:104EE000694628460294FDF743FA502000900120BD
:104EF000CDE90104694628460394FDF739FA0225F5
:104F000003200095CDE901040A4E69463046FDF7BD
:104F10002FFA4FF4E0700090CDE901546946304615
:104F2000CDE90345FDF724FA06B070BD001002403C
:104F30000008004800040048134810B511490160FA
:104F40001249416000210122C0E902120161416160
:104F50008161C1610162FDF793FB08B1FCF74FF875
:104F600000210948FDF738FB08B1FCF748F800219B
:104F70000548FDF75CFB002803D0BDE81040FCF7B6
:104F80003EB810BD005400405C020020FF7BF000E2
:104F90000B4810B509490160002141608160C16082
:104FA000016101758161C162FDF7F6FD002803D042
:104FB000BDE81040FCF723B810BD0000000301401D
:104FC000A80200200B4810B509490160002141608A
:104FD0008160C160016101758161C162FDF7DCFD25
:104FE000002803D0BDE81040FCF709B810BD000050
:104FF00004030140E40200200B4810B50949016098
:10500000002141608160C160016101758161C162FF
:10501000FDF7C2FD002803D0BDE81040FBF7EFBF4D
:1050200010BD0000080301402003002070B59CB0B3
:10503000002419941A9417941894149415941C210C
:1050400068461694FBF790F9342107A8FBF78CF912
:105050003E483D49C0E900142021816041F63F717E
:10506000C1604FF4807101610121C0E90514FEF7B0
:10507000CAFC08B1FBF7C3FF4FF4805517A93348AA
:105080001795FEF7B9FD08B1FBF7B9FF2F48FFF7F9
:1050900010F808B1FBF7B3FF7026CDE9146414A92A
:1050A0002A481694FEF7D0FB08B1FBF7A8FF602052
:1050B000CDE9000402940394049405940022694607
:1050C00022480694FEF763FF08B1FBF798FF04221D
:1050D00069461E48FEF75BFF08B1FBF790FF082208
:1050E00069461A48FEF753FF08B1FBF788FF41F6FF
:1050F0003E70CDE900600C2269461448FEF747FF78
:1051000008B1FBF77CFF1148FEF795FB0794782068
:105110000894CDE909404FF40050CDE90B5002202E
:10512000CDE90D040006CDE90F401194129407A9B2
:1051300006481394FEF728FB08B1FBF760FF03480D
:10514000FEF7DAFE1CB070BD002C01405C030020AD
:105150003EB500240F48009401940D49029401606B
:105160009F21C0E9011440F22B11C16080218161AF
:10517000FEF749FC08B1FBF742FF00946946054879
:105180000294FEF761FB002801D0FBF738FF3EBD1B
:1051900000100040A8030020184810B5164901600F
:1051A0004FF4E1314160002181600C22C160C0E90F
:1051B00004128161C161016241628162FFF78AFA72
:1051C00008B1FBF71CFF00210C48FFF7E9F808B114
:1051D000FBF715FF00210948FFF7BCF808B1FBF702
:1051E0000EFF0648FFF795F8002803D0BDE81040F1
:1051F000FBF705BF10BD000000480040F40300208D
:1052000070B5264C05462DED028B4FF48050206181
:10521000B0EE408A22A001F0B9F90A2002F0DAFDCE
:1052200002F0F6FE9FED210AA06184ED080A03F06A
:105230009DF96061052002F0CDFDB5EEC08AF1EE6A
:1052400010FA02D084ED038A257002F0A3FA02F06E
:10525000F1FD84ED070A322002F0BCFD144802F093
:10526000F1FE144880ED000A052002F0B3FD02F0C3
:10527000D5FE114880ED000A0D480078022802D1C1
:105280000E4880ED000A03F071F9C4E90A0101201B
:10529000BDEC028BBDE87040FDF758B8500000200F
:1052A0004D305F4153353630300D0A0000000000AC
:1052B0003005002084000020900000208C00002099
:1052C000FEE7FEE710B504462DED028BB0EE408AF6
:1052D00003F04CF9616A421A00EE102AB8EE400A57
:1052E000DFED5A0A20EE201AB5EEC01AF1EE10FAE0
:1052F00004D911EE102AB2F17C5F01DD9FED541A42
:1053000094ED000AF6EE001AD4ED063A60EE082A93
:1053100094ED010AD4ED040A20EE010AB0EE602AF1
:1053200020EE210A73EE881A40EE210AD4ED081A05
:10533000F4EEE01AF1EE10FA02DDF0EE610A08E098
:1053400094ED070AB4EEE00AF1EE10FA01D2F0EEA5
:10535000400A94ED020AB0EE604A78EE630A20EE4D
:10536000200AC0EE010A32EE840A30EE200AF4EE82
:10537000C01AF1EE10FA02DDB0EE610A08E0D4EDD9
:10538000072AF4EEC02AF1EE10FA01D2B0EE620A5A
:1053900094ED033AB5EEC03AF1EE10FA1ADDD4ED11
:1053A000052A30EE625AC5EE014AB4EEE43AF1EE57
:1053B00010FA04D2B0EE620A03EE010A0AE0B1EE7E
:1053C000435AB4EEE45AF1EE10FA03DDB0EE620A8D
:1053D00003EE410A1F4A94422DD102EE900A1E4A62
:1053E000F8EE622AC2ED002A1C4A82ED002A02EE83
:1053F000101A1B49B8EE422A81ED002A194981EDA5
:10540000001A1949C1ED000A1849C1ED003A1849BE
:1054100081ED000A1749D1ED000A1749C1ED000AD4
:10542000164981ED008A1649C1ED001A1549D4EDDF
:10543000070AC1ED000A84ED044A84ED050A84EDF3
:10544000068A6062BDEC028B10BD0000BD37863558
:105450006F12833AC4050020BC000020C000002069
:10546000C4000020C8000020CC000020D000002094
:10547000D400002084000020D8000020DC000020A0
:10548000E0000020E4000020F6EE000ADFED341A10
:10549000B0EE601A10EE100A00EE211A50EE210A4A
:1054A0002E4A60EE211A9FED2F2A2F49BDEEC11A18
:1054B000FDEEE00A904212DAF5EEC01AF1EE10FAB3
:1054C00002DB11EE100A01E010EE900A51F8200004
:1054D00000EE100AB8EEC00A20EE020A704710EE85
:1054E000100A224A90420CDAF5EEC01AF1EE10FAD8
:1054F00002DB11EE100A01E010EE900AC0F5C77051
:10550000E4E710EE100A1A4A9FED1A0A904210DAE8
:10551000F5EEC01AF1EE10FA02DB11EE100A01E00E
:1055200010EE900A01EB8000A0F58050D0F8C80979
:105530000DE0F5EEC01AF1EE10FA02DB11EE100AE2
:1055400001E010EE900AC0F5477051F8200000EE1F
:10555000900AF8EEE00A20EE800A7047DB0FC93FA0
:10556000E65FFD4217B7D138FCA50008DB0F4940C4
:10557000E4CB964017B7D1B810EE100A0349A1EB5F
:10558000600000EE900A20EE200A7047865A375FCE
:1055900010B503F085FF03480068BDE8104004F033
:1055A0001FB900001C00002010B54FF0E02000697A
:1055B00004F03CFE012803D0BDE8104004F06ABBB3
:1055C00010BD10B594B038216846FAF7CDFE14210D
:1055D0000EA8FAF7C9FE0020FDF7B8FB01200090E5
:1055E0000004019002200324CDE907042821CDE91D
:1055F0000A100C900D9009946846FDF7BBFE08B1A7
:1056000072B6FEE70F20CDE90E0400201090119035
:10561000129004210EA8FDF743FD002801D072B6B8
:10562000FEE714B010BD00000248016841F47001AB
:105630000160704788ED00E00148FEF75EBB0000A6
:105640005C03002010B50448FEF757FBBDE810408E
:105650000248FEF752BB00005C030020E404002077
:105660000148FEF74ABB00005C0300200148FEF73A
:1056700044BB0000A80300202DE9F0430268234B3F
:10568000234D244E244C4FF08049984207D0484582
:1056900005D0A84203D0B04201D0A04203D122F0ED
:1056A00070074A683A431D4FDFF874C0DFF8748012
:1056B00098420DD048450BD0A84209D0B04207D03F
:1056C000A04205D0B84203D0604501D0404503D187
:1056D00022F44075CA682A434D6922F080022A43A9
:1056E00002608A68C2620A688262984207D0A04259
:1056F00005D0B84203D0604501D0404501D10969C9
:10570000016301214161BDE8F0830000002C0140EC
:105710000004004000080040003401400040014007
:10572000004401400048014010B501F01F03012171
:10573000046A99408C430462016A9A4011430162F1
:1057400010BD10B501F01F030421046A99408C4379
:105750000462016A9A401143016210BD10B5846869
:1057600042EA032224F47F440A432243826010BDAC
:105770008268034B1A400A4342F007018160704778
:105780008FFFCFFF2DE9F043026A22F0010202628F
:10579000056A436882691C4C25F0020522400C68AA
:1057A00022F0030214438A68194E2A43174D194FF9
:1057B000DFF864C0DFF86490A84207D0B04205D09B
:1057C000B84203D0604501D0484506D122F0080810
:1057D000CA6842EA080222F00402A84207D0B04296
:1057E00005D0B84203D0604501D0484505D14D6988
:1057F00023F440731D438B692B43436084614968E4
:1058000041630262BDE8F0838FFFFEFF002C014080
:105810000034014000400140004401400048014084
:10582000F0B5026A22F010020262056A42688369DA
:10583000194C1B4E23400C6823F4407343EA0424A4
:1058400025F020038D6843EA0513144DA84201D0CA
:10585000B04206D1CF6823F0800343EA071323F058
:105860004003A8420AD0B04208D00E4DA84205D04D
:105870000D4DA84202D00D4DA84207D14D6922F42A
:10588000406242EA85028D6942EA85024260846193
:10589000496881630362F0BDFF8FFFFE002C014069
:1058A00000340140004001400044014000480140F4
:1058B000F0B5026A22F480720262056A4368C26926
:1058C000194C1B4E22400C6822F00302144325F4AD
:1058D00000728D6842EA0522144DA84201D0B04200
:1058E00006D1CF6822F4006242EA072222F48062E5
:1058F000A8420AD0B04208D00E4DA84205D00E4DA5
:10590000A84202D00D4DA84207D14D6923F440535F
:1059100043EA05138D6943EA05134360C46149688E
:10592000C1630262F0BD00008FFFFEFF002C01404A
:105930000034014000400140004401400048014063
:10594000F0B5026A22F480520262056A4268C369B5
:10595000194C1B4E23400C6823F4407343EA042483
:1059600025F400538D6843EA0533144DA84201D055
:10597000B04206D1CF6823F4004343EA073323F44F
:105980008043A8420AD0B04208D00E4DA84205D0AC
:105990000D4DA84202D00D4DA84207D14D6922F409
:1059A000404242EA85128D6942EA85124260C46132
:1059B000496801640362F0BDFF8FFFFE002C0140C7
:1059C00000340140004001400044014000480140D3
:1059D00030B5026A22F480320262046A4268036DC2
:1059E000114D2B400D681D4324F400330C8943EA0C
:1059F00004430E4CA0420BD00D4CA04208D00D4CDD
:105A0000A04205D00C4CA04202D00C4CA04204D1C4
:105A10004C6922F4803242EA0422426005654968FA
:105A20008164036230BD00008FFFFEFF002C014047
:105A30000034014000400140004401400048014062
:105A400030B5026A22F480120262046A4268036D71
:105A5000114D24F400142B400D6843EA05230D89F1
:105A600044EA05540D4DA8420BD00D4DA84208D074
:105A70000C4DA84205D00C4DA84202D00B4DA842B7
:105A800004D14D6922F4802242EA852242600365F6
:105A90004968C164046230BDFF8FFFFE002C0140E5
:105AA00000340140004001400044014000480140F2
:105AB00010B5036A046A24F001040462846924F0C6
:105AC000F00444EA021423F00A020A4384610262E9
:105AD00010BD10B5036A23F0100303628369046AE2
